:020000040000FA
:0600000017EF04F01200EE
:0600080081EF02F012007E
:06001800C3EF02F012002C
:06002A000100580800006F
:080030009E0000000400000026
:080038000001826B836B846BF5
:10004000806B816B896B866B876B886B690E856FA4
:1000500000D01200D9CFE6FFE1CFD9FFE652D95048
:10006000FD0FE96EFF0EDA20EA6E690EEE1801E16F
:10007000ED500FE14F0EF66E080EF76E0800F5CF4B
:100080009FF0540EF66E080EF76E0800F5CF9EF046
:1000900088D0D950FD0FE96EFF0EDA20EA6E640EAB
:1000A000EE1801E1ED500FE1540EF66E080EF76EFA
:1000B0000800F5CF9FF0540EF66E080EF76E08009C
:1000C000F5CF9EF06ED0D950FD0FE96EFF0EDA200D
:1000D000EA6E650EEE1801E1ED500FE1550EF66E79
:1000E000080EF76E0800F5CF9FF0550EF66E080E5D
:1000F000F76E0800F5CF9EF054D0D950FD0FE96E91
:10010000FF0EDA20EA6E630ED880EE54000EED5436
:100110000FE24A0EF66E080EF76E0800F5CF9FF05C
:100120004A0EF66E080EF76E0800F5CF9EF038D036
:10013000FD0EDBCF10F0FE0EDBCF11F00A0E0B6EC2
:100140000C6A10C006F011C007F0E1EC03F002C029
:1001500010F003C011F01050DF6EDF50F76A4A0F45
:10016000F66E080EF7220800F5CF9FF00A0E106E0B
:10017000116AFD0EDBCF06F0FE0EDBCF07F010C0DC
:100180000BF011C00CF0E1EC03F00650DF6EDF5015
:10019000F76A4A0FF66E080EF7220800F5CF9EF0B8
:1001A00000D0E552E552E7CFD9FF12000001A02BA5
:1001B000A051106E116AD890115004E6FA0E105C2E
:1001C000000E115803E3A06B00018A7300018AA39B
:1001D0002AD000018151A10A20E0200A19E0A00ADA
:1001E00012E0A10A0EE0A00A0AE0210A04E0010AD6
:1001F00001E019D018D0650E856F849114D0829FCC
:1002000012D0829510D0650E856F829F84910BD09D
:10021000650E856F8295849106D0650E856F829FED
:100220008295849100D000D012000001826B836B14
:10023000846B640E856F00D0120000018051070AA4
:1002400001E1CED0010A01E1C4D0030A01E1B7D037
:10025000010A01E1ADD0070A01E1A0D0010A01E1E4
:1002600096D0030A01E18AD0010A05E0805107080F
:1002700001E3BAD0B8D0802B8551E66EE66AEADE9B
:10028000E552E55282C086F083C087F084C088F0D2
:10029000080E00019E1500018613080E00019F152F
:1002A000080DF35000018613100E00019E15E84062
:1002B000E8403F0B00018713400E00019E15E84007
:1002C000E840E8401F0B00018713040E00019E1553
:1002D000040DF35000018713040E00019F15080D53
:1002E000F35000018713400E00019F150001871392
:1002F000100E00019F15080DF35000018713200E0A
:1003000000019E15E840E840E8401F0B00018813FB
:10031000010E00019E15080DF35000018813020E16
:1003200000019E15080DF35000018813020E000114
:100330009F15100DF35000018813010E00019F1549
:10034000400DF35000018813200E00019F15040D8D
:10035000F3500001881386C0E6FF49D8E55200013A
:10036000866F87C0E6FF43D8E5520001876F88C0DB
:10037000E6FF3DD8E5520001886F37D0802B86C05C
:10038000A1F0A1C08AFF8B9A949A8B9A2ED0802BD1
:100390000001A11FA1C08AFF8B8A27D0802B87C0B4
:1003A000A1F0948AA1C08AFF8B9894988B981DD055
:1003B000802B0001A11FA1C08AFF8B8816D0802B43
:1003C00088C0A1F09488A1C08AFF8B9694968B96E2
:1003D0000CD0802B0001A11FA1C08AFF8B8605D005
:1003E0009486806B02D0806B00D000D01200D9CFF1
:1003F000E6FFE1CFD9FFFE0EDB407F0B550B106E01
:10040000FE0EDB50550BE8241010E76EFE0EE7CF12
:10041000DBFFFE0EDB40E8403F0B330B106EFE0EA1
:10042000DB50330B040DF3501010E76EFE0EE7CFD8
:10043000DBFFDB380F0B106EFE0EDB500F0B100DC9
:10044000F3501010E76EFE0EE7CFDBFFDB5000D05D
:10045000E552E7CFD9FF12000001826B836B846BFA
:10046000816BAA0E00018B5D4AE1550E8C5D47E160
:10047000915106E1925104E10001640E856F40D074
:10048000830E915D06E190C085F00001010E816F41
:1004900037D09151020804E3050E8F5D0001856F8E
:1004A000810E0001915D06E1050E8E5D0001856FF4
:1004B000010E816F800E0001915D06E1050E8D5DDC
:1004C0000001856F010E816F000192A302D000012F
:1004D000828F000192A502D000018481000192A7C1
:1004E00002D000018285000192AB03D0200E0001F2
:1004F0008127000192AF03D0800E0001812700D038
:020500001200E7
:0E050200DACFE4FFE2CFDAFFE9CFE4FFEACF81
:10051000E4FFE652D9CFE6FFE1CFD9FFE6529D5086
:10052000200B25E09E50200B22E09E9AAE50DF6EFD
:100530000001A26B898A00018AB90AD08A898B845A
:10054000D59EE60ED76EF50ED66EF294D58E0FD0F0
:10055000080E0001935D0BE29351EA6A8B0FE96E7E
:10056000000EEA22DFCFEFFF932B00018A8BE552CA
:10057000E552E7CFD9FFE552E5CFEAFFE5CFE9FF46
:10058000E5CFDAFF1100D8CFE4FFE0CFE4FFE46E5F
:10059000DACFE4FFE2CFDAFFE9CFE4FFEACFE4FF0E
:1005A000F6CFE4FFF7CFE4FFF5CFE4FFF3CFE4FFAE
:1005B000F4CFE4FFFACFE4FF00EE00F0100EE80401
:1005C00003E3EECFE4FFFBD700EE10F0020EE804E9
:1005D00003E3EECFE4FFFBD7E652F250200B2EE010
:1005E000F250040B2BE0F00ED76EFD0ED66EF29497
:1005F000F29EF29C00018AA91DD08BA407D08B9497
:10060000899A0001936B15EC01F014D08AAB12D0DB
:100610000001A22B070EA25D0DE100018A9B080ECE
:100620000001935D02E100018A8D0001936B0001DE
:10063000A26B899AF28CF28E00018A81E55200EE5B
:1006400011F0020EE80403E3E5CFEDFFFBD700EE67
:100650000FF0100EE80403E3E5CFEDFFFBD7E5CF85
:10066000FAFFE5CFF4FFE5CFF3FFE5CFF5FFE5CFE8
:10067000F7FFE5CFF6FFE5CFEAFFE5CFE9FFE5CFEE
:0E068000DAFFE550E5CFE0FFE5CFD8FF100030
:02068E002A0E32
:10069000F66E000EF76E000EF86E00010900F550C0
:1006A000996F0900F5509A6F03E1996701D03DD029
:1006B0000900F550946F0900F550956F0900F55049
:1006C000966F09000900F550E96E0900F550EA6ED1
:1006D000090009000900F550976F0900F550986F5F
:1006E00009000900F6CF9BF0F7CF9CF0F8CF9DF002
:1006F00094C0F6FF95C0F7FF96C0F8FF000197532E
:1007000002E1985307E00900F550EE6E9707F8E212
:100710009807F9D79BC0F6FF9CC0F7FF9DC0F8FF74
:0C07200000019907000E9A5BBFD7120081
:04072C00070EC16E85
:100730009268936894688B6894948B948C0EE66EA0
:10074000F7EC03F0E55214D800018AAD07D0F29E11
:10075000F29C8A9D2CEC02F0F28CF28E00018AA1B0
:1007600005D08A91D6EC00F01DEC01F0EDD7120017
:10077000D08E00018A6BC70E9414946EC70E8B1432
:100780008B6E936A8A6A929A899A080ED56EF19452
:10079000F28AF00ED76EFD0ED66EF294D58E948E40
:1007A000948CAC94330EAF6EAC98AB8EAC9CAC8A90
:1007B000AB9CAB889F8A9D8A1CEC00F0F28CF28E79
:0207C000120025
:0E07C200036A026A100EE76ED89006360736FC
:1007D000023603360B50025C0C50035805E30B50F5
:0E07E000025E0C50035A062AE72EF0D71200D4
:0207EE00FF0EFC
:1007F000E350126E480E01D04C0EE76EE72EFED786
:0E080000E76AE72EFED7122EF7D7000012008F
:02080E00000EDA
:10081000F36E00EE00F0030E01D81200EA6002D081
:0E082000EE6AFCD7F350E9601200EE6AFCD7D6
:02082E0012EEC8
:1008300000F022EE00F0F86A0F9C47EC03F02BEC7E
:0A08400004F096EC03F0FBD7120061
:06084A003F065B4F666DE6
:060850007D077F6F4000F0
:0208560012008E
:04085800000000009C
:020000040030CA
:0100010022DC
:0100020006F7
:010003000EEE
:0100050001F9
:010006008178
:010008000FE8
:00000001FF
