:020000040000FA
:0600000081EF03F0120085
:0600080011EF02F01200EE
:06002A0001003007000098
:08003000D400000004000000F0
:080038000001D96BD86B690EC1
:10004000DA6FD8D900D01200D9CFE6FFE1CFD9FFBF
:10005000E652D950FD0FE96EFF0EDA20EA6E690E06
:10006000EE1801E1ED500FE1230EF66E070EF76E6C
:100070000800F5CFD5F0280EF66E070EF76E0800D3
:10008000F5CFD4F0A2D0D950FD0FE96EFF0EDA20E3
:10009000EA6E640EEE1801E1ED500FE1280EF66EE7
:1000A000070EF76E0800F5CFD5F0280EF66E070E96
:1000B000F76E0800F5CFD4F088D0D950FD0FE96E67
:1000C000FF0EDA20EA6E650EEE1801E1ED500FE149
:1000D000290EF66E070EF76E0800F5CFD5F0290E43
:1000E000F66E070EF76E0800F5CFD4F06ED0D9503B
:1000F000FD0FE96EFF0EDA20EA6E670EEE1801E1E1
:10010000ED500FE12B0EF66E070EF76E0800F5CFDF
:10011000D5F02A0EF66E070EF76E0800F5CFD4F074
:1001200054D0D950FD0FE96EFF0EDA20EA6E630E4F
:10013000D880EE54000EED540FE21E0EF66E070E40
:10014000F76E0800F5CFD5F01E0EF66E070EF76EAF
:100150000800F5CFD4F038D0FD0EDBCF10F0FE0E46
:10016000DBCF11F00A0E0B6E0C6A10C006F011C046
:1001700007F04BEC03F002C010F003C011F0105078
:10018000DF6EDF50F76A1E0FF66E070EF7220800CB
:10019000F5CFD5F00A0E106E116AFD0EDBCF06F01A
:1001A000FE0EDBCF07F010C00BF011C00CF04BECD3
:1001B00003F00650DF6EDF50F76A1E0FF66E070E73
:1001C000F7220800F5CFD4F000D0E552E552E7CF92
:1001D000D9FF12000001D62BD651106E116AD890AB
:1001E000115004E6FA0E105C000E115803E3D66BB2
:1001F0000001C0730001C0A32BD00001D851A10A97
:1002000022E0200A1CE0A00A16E0A10A12E0A00ADF
:100210000EE0210A04E0010A01E01AD019D0D9A5A4
:1002200003D0670EDA6F02D0650EDA6F11D0D99362
:100230000FD0D9910DD0650EDA6FD99309D0650E24
:10024000DA6FD99105D0650EDA6FD993D99100D0C4
:1002500000D01200D9CFE6FFE1CFD9FF020EE12690
:100260000001D751020A39E0030A16E0010A04E04E
:10027000D751020854E252D00001DA51E66EE66A24
:10028000E3DEE552E552CF0E89120F0E8A12010EFF
:10029000DB680001D72B44D0CF0E89120F0E8A12D3
:1002A0002C0EF66E070EF76E0800F550DF6E010E8D
:1002B000D4C0DBFF0001D9B3DB9EDF508916010EED
:1002C000DB500F0BF0098916010EDB380F0B0F0BFB
:1002D000F0098A160001D72B23D0CF0E89120F0EFA
:1002E0008A122D0EF66E070EF76E0800F550DF6EBF
:1002F000010ED5C0DBFF0001D9B1DB9EDF508916AE
:10030000010EDB500F0BF0098916010EDB380F0BC5
:100310000F0BF0098A160001D76B02D0D76B00D003
:10032000010EDBAA02D08A8A01D08A9A00D0020E7E
:10033000E15C02E2E16AE552E16EE552E7CFD9FF06
:1003400012000001D96BD86BAA0E0001C15D50E10B
:10035000550EC25D4DE1C75106E1C85104E10001EF
:10036000640EDA6F46D0020EC75D04E1050EC55D6E
:100370000001DA6F800E0001C75D06E1050EC35D66
:100380000001DA6F010ED86F810E0001C75D06E132
:10039000050EC45D0001DA6F010ED86F830E0001F7
:1003A000C75D07E1C6C0DAF00001010ED86FD9853C
:1003B00020D0C8A102D00001D9870001C8A302D073
:1003C0000001D9830001C8A502D00001D98900012C
:1003D000C8A702D00001D9810001C8AB03D0200E0C
:1003E0000001D8270001C8AF03D0800E0001D82734
:1003F00000D01200D9CFE6FFE1CFD9FFE652DF6A85
:10040000080EDF5C09E2DF50EA6AC10FE96E000EF8
:10041000EA22EF6ADF2AF4D7E552E552E7CFD9FFA7
:020420001200C8
:0E042200DACFE4FFE2CFDAFFE9CFE4FFEACF62
:10043000E4FFF6CFE4FFF7CFE4FFF5CFE4FFF3CF1F
:10044000E4FFF4CFE4FFFACFE4FF00EE00F0100E7B
:10045000E80403E3EECFE4FFFBD700EE10F0020E5A
:10046000E80403E3EECFE4FFFBD7E652D9CFE6FF83
:10047000E1CFD9FFE6529D50200B1AE09E50200B91
:1004800017E09E9AAE50DF6E0001DB6B0001C0A941
:10049000C089080E0001C95D0BE2C951EA6AC10FAB
:1004A000E96E000EEA22DFCFEFFFC92B0001C08BFF
:1004B000F250200B25E0F250040B22E0F00ED76E34
:1004C000FD0ED66EF2940001C051100B17E0C05122
:1004D000200B14E00001DB2B070EDB5D0FE10001B8
:1004E000C09B0001DB6B080E0001C95D03E1000148
:1004F000C08D02D0FAEC01F00001C96B0001C0818F
:10050000E552E552E7CFD9FFE55200EE11F0020EB9
:10051000E80403E3E5CFEDFFFBD700EE0FF0100E8C
:10052000E80403E3E5CFEDFFFBD7E5CFFAFFE5CF26
:10053000F4FFE5CFF3FFE5CFF5FFE5CFF7FFE5CF1C
:10054000F6FFE5CFEAFFE5CFE9FFE5CFDAFF1100DF
:10055000730ED36E7F0EC16E926893688C0EE66E3A
:1005600061EC03F0E5521CD80001C0AD0BD0F29E47
:10057000F29CC09D520EAD6E200EAD6EA1EC01F04E
:10058000F28CF28E0001C0A109D0F29EF29CC091C3
:10059000EAEC00F02AEC01F0F28CF28EE5D71200C2
:1005A000D09E0001C06B300E9216CF0E8912D00E75
:1005B00093162F0E8A12080ED56EF194F28AF00E61
:1005C000D76EFD0ED66EF294D58E93889392AC942E
:1005D000AA6A330EAF6EAC98AC9CAC8AAB9CAB886D
:1005E000AB8E9F9A9D8A530EAD6E200EAD6E1CECA5
:0805F00000F0F28CF28E120003
:0805F8002A0EF66E000EF76EEC
:10060000000EF86E00010900F550CF6F0900F5509B
:10061000D06F03E1CF6701D03DD00900F550CA6F1C
:100620000900F550CB6F0900F550CC6F09000900A7
:10063000F550E96E0900F550EA6E0900090009005D
:10064000F550CD6F0900F550CE6F09000900F6CFC7
:10065000D1F0F7CFD2F0F8CFD3F0CAC0F6FFCBC0BD
:10066000F7FFCCC0F8FF0001CD5302E1CE5307E005
:100670000900F550EE6ECD07F8E2CE07F9D7D1C0EC
:10068000F6FFD2C0F7FFD3C0F8FF0001CF07000E7E
:06069000D05BBFD7120091
:0A069600036A026A100EE76ED890A6
:1006A00006360736023603360B50025C0C500358F0
:1006B00005E30B50025E0C50035A062AE72EF0D7D2
:0206C000120026
:0E06C200FF0EE350126E480E01D04C0EE76E94
:1006D000E72EFED7E76AE72EFED7122EF7D70000E7
:0206E000120006
:0E06E200000EF36E00EE00F0010E01D81200C3
:1006F000EA6002D0EE6AFCD7F350E9601200EE6ABD
:02070000FCD724
:0E07020010EE80F020EE80F0F86A0F9CFCEC08
:0E07100002F097EC03F0A8EC02F0FBD7120009
:02071E00C0CF4A
:0E072000A4868B9290C78082BFFFB0BDBF7FC2
:02072E001200B7
:04073000FFFF0000C7
:020000040030CA
:01000100C836
:0100020006F7
:010003001EDE
:0100050000FA
:010006008178
:0100080003F4
:00000001FF
